:0300000002000EED
:0C000E00787FE4F6D8FD758108020055EB
:0300C00001080034
:07000300758C3C758AB022E8
:0E00B200D2AFD2A9758901120003D28C80FE54
:03000B0002009A56
:10009A00C0E0C0D00508E508B41405750800B2A090
:0800AA00120003D0D0D0E032B7
:10001A000200B2E493A3F8E493A34003F68001F24A
:10002A0008DFF48029E493A3F85407240CC8C333E7
:10003A00C4540F4420C8834004F456800146F6DFB6
:10004A00E4800B01020408102040809000C0E47E86
:10005A00019360BCA3FF543F30E509541FFEE493AB
:10006A00A360010ECF54C025E060A840B8E493A372
:10007A00FAE493A3F8E493A3C8C582C8CAC583CA9D
:10008A00F0A3C8C582C8CAC583CADFE9DEE780BE55
:0100C300003C
:00000001FF
