:0300000002008C6F
:0C008C00787FE4F6D8FD758111020006B3
:10006700FEFDFBF7EFDFBF7F3F065B4F666D7D074A
:040077007F6F000097
:10007B00E4FEEEC39F5009E4FD0DBDC8FC0E80F2FB
:01008B002252
:100006009080067480F0D2AFD2A8D288E4F511F5BC
:100016001074082510F8E4F60510E510B408F2E5AA
:100026001175F00A8485F00FE51175F06484E5F02A
:1000360075F00A84F50EE4F510E5109000679390CC
:100046008002F074082510F8E690006F9390800007
:10005600F07F0A12007B0510E510C3940840DA8091
:01006600BEDB
:0300030002009860
:030098000511321D
:00000001FF
