:030000000200C734
:0C00C700787FE4F6D8FD75810B0200582C
:1000AA00E4FFFEE4FDFC0DBD00010CED646E4C7036
:0C00BA00F50FBF00010EEF640A4E70E766
:0100C6002217
:10008300AB07C2B5C2B6E4F508EB25E0FB92B4D2E8
:10009300B61200AAC2B60508E508C3940840EAD21E
:0600A300B51200AAC2B56F
:0100A9002234
:1000580075080A750906E5088509F084F5A0E5081C
:100068008509F084E5F075F00AA4FFAEF0AD097CCF
:0B007800001200038F0A12008380FEBC
:10000300BC000BBE0029EF8DF084FFADF022E4CCE1
:10001300F875F008EF2FFFEE33FEEC33FCEE9DECAA
:10002300984005FCEE9DFE0FD5F0E9E4CEFD22EDF0
:10003300F8F5F0EE8420D21CFEADF075F008EF2F3A
:10004300FFED33FD4007985006D5F0F222C398FD2B
:050053000FD5F0EA22C8
:00000001FF
