:030000000200B744
:0C00B700787FE4F6D8FD7581090200C3D3
:10009F00E4F508308002050830810205083082023D
:0800AF00050830830205082258
:100084007FE87E037D647C00ED1D70011CED4C70E7
:0A009400F7EF1F70011EEF4E70EA37
:01009E00223F
:06000300E5086401701D18
:100009007509FE8509907B01120084E50925E0F553
:0B001900094309018509900BBB08EDAD
:08002400805AE5086402701D1A
:10002C0075097F8509907B01120084E509C313F5DE
:0B003C00094309808509900BBB08ED0B
:100047008037E508B403177590FF1200847590E7B1
:100057001200847590C31200847590818015759085
:10006700FF12008475907E12008475903C12008404
:0C007700759018120084E4F590120084CB
:01008300225A
:0800C30012009F12000380F8F7
:00000001FF
